{
  "contractName": "Prana",
  "abi": [
    {
      "constant": false,
      "inputs": [
        {
          "name": "_IpfsHash",
          "type": "string"
        }
      ],
      "name": "addContent",
      "outputs": [],
      "payable": false,
      "stateMutability": "nonpayable",
      "type": "function"
    },
    {
      "constant": false,
      "inputs": [
        {
          "name": "_addr",
          "type": "address"
        },
        {
          "name": "_username",
          "type": "string"
        },
        {
          "name": "_email",
          "type": "string"
        },
        {
          "name": "_ProfilePhotoHash",
          "type": "string"
        }
      ],
      "name": "registerUser",
      "outputs": [],
      "payable": false,
      "stateMutability": "nonpayable",
      "type": "function"
    },
    {
      "constant": true,
      "inputs": [
        {
          "name": "_user",
          "type": "address"
        },
        {
          "name": "_IpfsHashIndex",
          "type": "uint256"
        }
      ],
      "name": "getUserPost",
      "outputs": [
        {
          "name": "",
          "type": "string"
        }
      ],
      "payable": false,
      "stateMutability": "view",
      "type": "function"
    }
  ],
  "bytecode": "0x608060405234801561001057600080fd5b50610977806100206000396000f300608060405260043610610057576000357c0100000000000000000000000000000000000000000000000000000000900463ffffffff16806382f8fc5d1461005c578063a0ecbd3414610097578063fe69c2961461015d575b600080fd5b34801561006857600080fd5b506100956004803603810190808035906020019082018035906020019190919293919293905050506101e8565b005b3480156100a357600080fd5b506100e2600480360381019080803573ffffffffffffffffffffffffffffffffffffffff1690602001909291908035906020019092919050505061035b565b6040518080602001828103825283818151815260200191508051906020019080838360005b83811015610122578082015181840152602081019050610107565b50505050905090810190601f16801561014f5780820380516001836020036101000a031916815260200191505b509250505060405180910390f35b34801561016957600080fd5b506101e6600480360381019080803573ffffffffffffffffffffffffffffffffffffffff169060200190929190803590602001908201803590602001919091929391929390803590602001908201803590602001919091929391929390803590602001908201803590602001919091929391929390505050610457565b005b600115156000803373ffffffffffffffffffffffffffffffffffffffff1673ffffffffffffffffffffffffffffffffffffffff16815260200190815260200160002060009054906101000a900460ff1615151415156102d5576040517f08c379a000000000000000000000000000000000000000000000000000000000815260040180806020018281038252602b8152602001807f43757272656e742075736572206e6f742072656769737465726564206f6e207481526020017f686520706c6174666f726d00000000000000000000000000000000000000000081525060400191505060405180910390fd5b600160003373ffffffffffffffffffffffffffffffffffffffff1673ffffffffffffffffffffffffffffffffffffffff168152602001908152602001600020600301828290918060018154018082558091505090600182039060005260206000200160009091929390919293909192909192509190610355929190610752565b50505050565b6060600160008473ffffffffffffffffffffffffffffffffffffffff1673ffffffffffffffffffffffffffffffffffffffff168152602001908152602001600020600301828154811015156103ac57fe5b906000526020600020018054600181600116156101000203166002900480601f01602080910402602001604051908101604052809291908181526020018280546001816001161561010002031660029004801561044a5780601f1061041f5761010080835404028352916020019161044a565b820191906000526020600020905b81548152906001019060200180831161042d57829003601f168201915b5050505050905092915050565b6060600015156000808a73ffffffffffffffffffffffffffffffffffffffff1673ffffffffffffffffffffffffffffffffffffffff16815260200190815260200160002060009054906101000a900460ff161515141515610520576040517f08c379a00000000000000000000000000000000000000000000000000000000081526004018080602001828103825260128152602001807f416c72656164792072656769737465726564000000000000000000000000000081525060200191505060405180910390fd5b60016000808a73ffffffffffffffffffffffffffffffffffffffff1673ffffffffffffffffffffffffffffffffffffffff16815260200190815260200160002060006101000a81548160ff02191690831515021790555060a06040519081016040528088888080601f016020809104026020016040519081016040528093929190818152602001838380828437820191505050505050815260200186868080601f016020809104026020016040519081016040528093929190818152602001838380828437820191505050505050815260200184848080601f01602080910402602001604051908101604052809392919081815260200183838082843782019150505050505081526020018281526020018973ffffffffffffffffffffffffffffffffffffffff16815250600160008a73ffffffffffffffffffffffffffffffffffffffff1673ffffffffffffffffffffffffffffffffffffffff16815260200190815260200160002060008201518160000190805190602001906106a69291906107d2565b5060208201518160010190805190602001906106c39291906107d2565b5060408201518160020190805190602001906106e09291906107d2565b5060608201518160030190805190602001906106fd929190610852565b5060808201518160040160006101000a81548173ffffffffffffffffffffffffffffffffffffffff021916908373ffffffffffffffffffffffffffffffffffffffff1602179055509050505050505050505050565b828054600181600116156101000203166002900490600052602060002090601f016020900481019282601f1061079357803560ff19168380011785556107c1565b828001600101855582156107c1579182015b828111156107c05782358255916020019190600101906107a5565b5b5090506107ce91906108b2565b5090565b828054600181600116156101000203166002900490600052602060002090601f016020900481019282601f1061081357805160ff1916838001178555610841565b82800160010185558215610841579182015b82811115610840578251825591602001919060010190610825565b5b50905061084e91906108b2565b5090565b8280548282559060005260206000209081019282156108a1579160200282015b828111156108a05782518290805190602001906108909291906107d2565b5091602001919060010190610872565b5b5090506108ae91906108d7565b5090565b6108d491905b808211156108d05760008160009055506001016108b8565b5090565b90565b61090091905b808211156108fc57600081816108f39190610903565b506001016108dd565b5090565b90565b50805460018160011615610100020316600290046000825580601f106109295750610948565b601f01602090049060005260206000209081019061094791906108b2565b5b505600a165627a7a723058201a4d334c323718122362a3c497ccb7518733990bcf9eba05b0517829c3efe2f30029",
  "source": "pragma solidity ^0.4.24;\n\ncontract Prana {\n\n    struct User {\n        string username;\n        string email;\n        string ProfilePhotoHash;\n        string[] IpfsHashes; //This array records posts made by the users as an array of ipfs hashes\n        address userAddr;\n    }\n\n    mapping (address => bool) private isRegistered;\n    mapping (address => User) private registeredUsers;\n\n    function addContent(string _IpfsHash) external {\n        require(isRegistered[msg.sender] == true, \"Current user not registered on the platform\");\n        registeredUsers[msg.sender].IpfsHashes.push(_IpfsHash);\n    }\n\n    function registerUser(address _addr, string _username, string _email, string _ProfilePhotoHash) external {\n        require(isRegistered[_addr] == false, \"Already registered\");\n        string[] memory _IpfsHashes;\n        isRegistered[_addr] = true;\n        registeredUsers[_addr] = User(_username, _email, _ProfilePhotoHash, _IpfsHashes, _addr);\n    }\n\n    function getUserPost(address _user, uint _IpfsHashIndex) external view returns(string) {\n        return registeredUsers[_user].IpfsHashes[_IpfsHashIndex];\n    }\n\n}",
  "sourcePath": "/Users/miraj/BlockchainProjects/prana/contracts/prana.sol",
  "compiler": {
    "name": "solc",
    "version": "0.4.24+commit.e67f0147.Emscripten.clang"
  },
  "schemaVersion": "2.0.1",
  "updatedAt": "2018-09-02T08:55:38.972Z"
}