{
  "contractName": "Prana",
  "abi": [
    {
      "constant": false,
      "inputs": [
        {
          "name": "_IpfsHash",
          "type": "string"
        }
      ],
      "name": "addContent",
      "outputs": [],
      "payable": false,
      "stateMutability": "nonpayable",
      "type": "function"
    },
    {
      "constant": false,
      "inputs": [
        {
          "name": "_addr",
          "type": "address"
        },
        {
          "name": "_username",
          "type": "string"
        },
        {
          "name": "_email",
          "type": "string"
        },
        {
          "name": "_ProfilePhotoHash",
          "type": "string"
        }
      ],
      "name": "registerUser",
      "outputs": [],
      "payable": false,
      "stateMutability": "nonpayable",
      "type": "function"
    }
  ],
  "bytecode": "0x608060405234801561001057600080fd5b506107aa806100206000396000f30060806040526004361061004c576000357c0100000000000000000000000000000000000000000000000000000000900463ffffffff16806382f8fc5d14610051578063fe69c2961461008c575b600080fd5b34801561005d57600080fd5b5061008a600480360381019080803590602001908201803590602001919091929391929390505050610117565b005b34801561009857600080fd5b50610115600480360381019080803573ffffffffffffffffffffffffffffffffffffffff16906020019092919080359060200190820180359060200191909192939192939080359060200190820180359060200191909192939192939080359060200190820180359060200191909192939192939050505061028a565b005b600115156000803373ffffffffffffffffffffffffffffffffffffffff1673ffffffffffffffffffffffffffffffffffffffff16815260200190815260200160002060009054906101000a900460ff161515141515610204576040517f08c379a000000000000000000000000000000000000000000000000000000000815260040180806020018281038252602b8152602001807f43757272656e742075736572206e6f742072656769737465726564206f6e207481526020017f686520706c6174666f726d00000000000000000000000000000000000000000081525060400191505060405180910390fd5b600160003373ffffffffffffffffffffffffffffffffffffffff1673ffffffffffffffffffffffffffffffffffffffff168152602001908152602001600020600301828290918060018154018082558091505090600182039060005260206000200160009091929390919293909192909192509190610284929190610585565b50505050565b6060600015156000808a73ffffffffffffffffffffffffffffffffffffffff1673ffffffffffffffffffffffffffffffffffffffff16815260200190815260200160002060009054906101000a900460ff161515141515610353576040517f08c379a00000000000000000000000000000000000000000000000000000000081526004018080602001828103825260128152602001807f416c72656164792072656769737465726564000000000000000000000000000081525060200191505060405180910390fd5b60016000808a73ffffffffffffffffffffffffffffffffffffffff1673ffffffffffffffffffffffffffffffffffffffff16815260200190815260200160002060006101000a81548160ff02191690831515021790555060a06040519081016040528088888080601f016020809104026020016040519081016040528093929190818152602001838380828437820191505050505050815260200186868080601f016020809104026020016040519081016040528093929190818152602001838380828437820191505050505050815260200184848080601f01602080910402602001604051908101604052809392919081815260200183838082843782019150505050505081526020018281526020018973ffffffffffffffffffffffffffffffffffffffff16815250600160008a73ffffffffffffffffffffffffffffffffffffffff1673ffffffffffffffffffffffffffffffffffffffff16815260200190815260200160002060008201518160000190805190602001906104d9929190610605565b5060208201518160010190805190602001906104f6929190610605565b506040820151816002019080519060200190610513929190610605565b506060820151816003019080519060200190610530929190610685565b5060808201518160040160006101000a81548173ffffffffffffffffffffffffffffffffffffffff021916908373ffffffffffffffffffffffffffffffffffffffff1602179055509050505050505050505050565b828054600181600116156101000203166002900490600052602060002090601f016020900481019282601f106105c657803560ff19168380011785556105f4565b828001600101855582156105f4579182015b828111156105f35782358255916020019190600101906105d8565b5b50905061060191906106e5565b5090565b828054600181600116156101000203166002900490600052602060002090601f016020900481019282601f1061064657805160ff1916838001178555610674565b82800160010185558215610674579182015b82811115610673578251825591602001919060010190610658565b5b50905061068191906106e5565b5090565b8280548282559060005260206000209081019282156106d4579160200282015b828111156106d35782518290805190602001906106c3929190610605565b50916020019190600101906106a5565b5b5090506106e1919061070a565b5090565b61070791905b808211156107035760008160009055506001016106eb565b5090565b90565b61073391905b8082111561072f57600081816107269190610736565b50600101610710565b5090565b90565b50805460018160011615610100020316600290046000825580601f1061075c575061077b565b601f01602090049060005260206000209081019061077a91906106e5565b5b505600a165627a7a72305820bf4657399d1dfd267a62cbedebe0628b78004dd0607fca59d1511466d0bb327d0029",
  "source": "pragma solidity ^0.4.24;\n\ncontract Prana {\n\n    struct User {\n        string username;\n        string email;\n        string ProfilePhotoHash;\n        string[] IpfsHashes; //This array records posts made by the users as an array of ipfs hashes\n        address userAddr;\n    }\n\n    mapping (address => bool) private isRegistered;\n    mapping (address => User) private registeredUsers;\n\n    function addContent(string _IpfsHash) external {\n        require(isRegistered[msg.sender] == true, \"Current user not registered on the platform\");\n        registeredUsers[msg.sender].IpfsHashes.push(_IpfsHash);\n    }\n\n    function registerUser(address _addr, string _username, string _email, string _ProfilePhotoHash) external {\n        require(isRegistered[_addr] == false, \"Already registered\");\n        string[] memory _IpfsHashes;\n        isRegistered[_addr] = true;\n        registeredUsers[_addr] = User(_username, _email, _ProfilePhotoHash, _IpfsHashes, _addr);\n    }\n\n}",
  "sourcePath": "/Users/miraj/BlockchainProjects/prana/contracts/prana.sol",
  "compiler": {
    "name": "solc",
    "version": "0.4.24+commit.e67f0147.Emscripten.clang"
  },
  "schemaVersion": "2.0.1",
  "updatedAt": "2018-08-31T17:08:05.456Z"
}